{
  "_format": "hh-sol-artifact-1",
  "contractName": "SecureHybridAuctionHouse",
  "sourceName": "contracts/HybridAuctionHouse.sol",
  "abi": [
    {
      "inputs": [],
      "stateMutability": "nonpayable",
      "type": "constructor"
    },
    {
      "inputs": [],
      "name": "EnforcedPause",
      "type": "error"
    },
    {
      "inputs": [],
      "name": "ExpectedPause",
      "type": "error"
    },
    {
      "inputs": [
        {
          "internalType": "address",
          "name": "owner",
          "type": "address"
        }
      ],
      "name": "OwnableInvalidOwner",
      "type": "error"
    },
    {
      "inputs": [
        {
          "internalType": "address",
          "name": "account",
          "type": "address"
        }
      ],
      "name": "OwnableUnauthorizedAccount",
      "type": "error"
    },
    {
      "inputs": [],
      "name": "ReentrancyGuardReentrantCall",
      "type": "error"
    },
    {
      "anonymous": false,
      "inputs": [
        {
          "indexed": true,
          "internalType": "uint256",
          "name": "auctionId",
          "type": "uint256"
        }
      ],
      "name": "AuctionCancelled",
      "type": "event"
    },
    {
      "anonymous": false,
      "inputs": [
        {
          "indexed": true,
          "internalType": "uint256",
          "name": "auctionId",
          "type": "uint256"
        },
        {
          "indexed": false,
          "internalType": "string",
          "name": "offchainId",
          "type": "string"
        },
        {
          "indexed": false,
          "internalType": "address",
          "name": "seller",
          "type": "address"
        },
        {
          "indexed": false,
          "internalType": "uint256",
          "name": "endTime",
          "type": "uint256"
        }
      ],
      "name": "AuctionCreated",
      "type": "event"
    },
    {
      "anonymous": false,
      "inputs": [
        {
          "indexed": true,
          "internalType": "uint256",
          "name": "auctionId",
          "type": "uint256"
        },
        {
          "indexed": false,
          "internalType": "address",
          "name": "winner",
          "type": "address"
        },
        {
          "indexed": false,
          "internalType": "uint256",
          "name": "amount",
          "type": "uint256"
        }
      ],
      "name": "AuctionSettled",
      "type": "event"
    },
    {
      "anonymous": false,
      "inputs": [
        {
          "indexed": true,
          "internalType": "uint256",
          "name": "auctionId",
          "type": "uint256"
        },
        {
          "indexed": false,
          "internalType": "address",
          "name": "bidder",
          "type": "address"
        },
        {
          "indexed": false,
          "internalType": "uint256",
          "name": "amount",
          "type": "uint256"
        },
        {
          "indexed": false,
          "internalType": "uint256",
          "name": "newEndTime",
          "type": "uint256"
        }
      ],
      "name": "BidPlaced",
      "type": "event"
    },
    {
      "anonymous": false,
      "inputs": [
        {
          "indexed": true,
          "internalType": "address",
          "name": "previousOwner",
          "type": "address"
        },
        {
          "indexed": true,
          "internalType": "address",
          "name": "newOwner",
          "type": "address"
        }
      ],
      "name": "OwnershipTransferred",
      "type": "event"
    },
    {
      "anonymous": false,
      "inputs": [
        {
          "indexed": false,
          "internalType": "address",
          "name": "account",
          "type": "address"
        }
      ],
      "name": "Paused",
      "type": "event"
    },
    {
      "anonymous": false,
      "inputs": [
        {
          "indexed": true,
          "internalType": "uint256",
          "name": "auctionId",
          "type": "uint256"
        },
        {
          "indexed": false,
          "internalType": "uint256",
          "name": "newEndTime",
          "type": "uint256"
        },
        {
          "indexed": false,
          "internalType": "uint8",
          "name": "extensionCount",
          "type": "uint8"
        }
      ],
      "name": "TimeExtension",
      "type": "event"
    },
    {
      "anonymous": false,
      "inputs": [
        {
          "indexed": false,
          "internalType": "address",
          "name": "account",
          "type": "address"
        }
      ],
      "name": "Unpaused",
      "type": "event"
    },
    {
      "anonymous": false,
      "inputs": [
        {
          "indexed": true,
          "internalType": "address",
          "name": "user",
          "type": "address"
        },
        {
          "indexed": false,
          "internalType": "uint256",
          "name": "amount",
          "type": "uint256"
        }
      ],
      "name": "Withdrawal",
      "type": "event"
    },
    {
      "inputs": [],
      "name": "MAX_AUCTION_DURATION",
      "outputs": [
        {
          "internalType": "uint256",
          "name": "",
          "type": "uint256"
        }
      ],
      "stateMutability": "view",
      "type": "function"
    },
    {
      "inputs": [],
      "name": "MAX_BID_AMOUNT",
      "outputs": [
        {
          "internalType": "uint256",
          "name": "",
          "type": "uint256"
        }
      ],
      "stateMutability": "view",
      "type": "function"
    },
    {
      "inputs": [],
      "name": "MAX_OFFCHAIN_ID_LENGTH",
      "outputs": [
        {
          "internalType": "uint256",
          "name": "",
          "type": "uint256"
        }
      ],
      "stateMutability": "view",
      "type": "function"
    },
    {
      "inputs": [],
      "name": "MAX_PROTOCOL_FEE",
      "outputs": [
        {
          "internalType": "uint256",
          "name": "",
          "type": "uint256"
        }
      ],
      "stateMutability": "view",
      "type": "function"
    },
    {
      "inputs": [],
      "name": "MAX_TIME_EXTENSIONS",
      "outputs": [
        {
          "internalType": "uint256",
          "name": "",
          "type": "uint256"
        }
      ],
      "stateMutability": "view",
      "type": "function"
    },
    {
      "inputs": [],
      "name": "MIN_AUCTION_DURATION",
      "outputs": [
        {
          "internalType": "uint256",
          "name": "",
          "type": "uint256"
        }
      ],
      "stateMutability": "view",
      "type": "function"
    },
    {
      "inputs": [],
      "name": "MIN_BID_INCREMENT_PERCENTAGE",
      "outputs": [
        {
          "internalType": "uint256",
          "name": "",
          "type": "uint256"
        }
      ],
      "stateMutability": "view",
      "type": "function"
    },
    {
      "inputs": [],
      "name": "SETTLEMENT_GRACE_PERIOD",
      "outputs": [
        {
          "internalType": "uint256",
          "name": "",
          "type": "uint256"
        }
      ],
      "stateMutability": "view",
      "type": "function"
    },
    {
      "inputs": [],
      "name": "TIME_BUFFER",
      "outputs": [
        {
          "internalType": "uint256",
          "name": "",
          "type": "uint256"
        }
      ],
      "stateMutability": "view",
      "type": "function"
    },
    {
      "inputs": [],
      "name": "auctionCounter",
      "outputs": [
        {
          "internalType": "uint256",
          "name": "",
          "type": "uint256"
        }
      ],
      "stateMutability": "view",
      "type": "function"
    },
    {
      "inputs": [
        {
          "internalType": "uint256",
          "name": "",
          "type": "uint256"
        }
      ],
      "name": "auctions",
      "outputs": [
        {
          "internalType": "address payable",
          "name": "seller",
          "type": "address"
        },
        {
          "internalType": "address payable",
          "name": "highestBidder",
          "type": "address"
        },
        {
          "internalType": "uint256",
          "name": "highestBid",
          "type": "uint256"
        },
        {
          "internalType": "uint256",
          "name": "minIncrement",
          "type": "uint256"
        },
        {
          "internalType": "uint256",
          "name": "endTime",
          "type": "uint256"
        },
        {
          "internalType": "uint256",
          "name": "createdAt",
          "type": "uint256"
        },
        {
          "internalType": "bool",
          "name": "settled",
          "type": "bool"
        },
        {
          "internalType": "uint8",
          "name": "timeExtensions",
          "type": "uint8"
        },
        {
          "internalType": "string",
          "name": "offchainId",
          "type": "string"
        }
      ],
      "stateMutability": "view",
      "type": "function"
    },
    {
      "inputs": [
        {
          "internalType": "uint256",
          "name": "auctionId",
          "type": "uint256"
        }
      ],
      "name": "canExtendTime",
      "outputs": [
        {
          "internalType": "bool",
          "name": "",
          "type": "bool"
        }
      ],
      "stateMutability": "view",
      "type": "function"
    },
    {
      "inputs": [
        {
          "internalType": "uint256",
          "name": "auctionId",
          "type": "uint256"
        }
      ],
      "name": "canSettlePublicly",
      "outputs": [
        {
          "internalType": "bool",
          "name": "",
          "type": "bool"
        }
      ],
      "stateMutability": "view",
      "type": "function"
    },
    {
      "inputs": [
        {
          "internalType": "uint256",
          "name": "auctionId",
          "type": "uint256"
        }
      ],
      "name": "cancelAuction",
      "outputs": [],
      "stateMutability": "nonpayable",
      "type": "function"
    },
    {
      "inputs": [
        {
          "internalType": "string",
          "name": "_offchainId",
          "type": "string"
        },
        {
          "internalType": "uint256",
          "name": "_minBid",
          "type": "uint256"
        },
        {
          "internalType": "uint256",
          "name": "_duration",
          "type": "uint256"
        }
      ],
      "name": "createAuction",
      "outputs": [
        {
          "internalType": "uint256",
          "name": "",
          "type": "uint256"
        }
      ],
      "stateMutability": "nonpayable",
      "type": "function"
    },
    {
      "inputs": [
        {
          "internalType": "uint256",
          "name": "auctionId",
          "type": "uint256"
        }
      ],
      "name": "emergencyCancel",
      "outputs": [],
      "stateMutability": "nonpayable",
      "type": "function"
    },
    {
      "inputs": [
        {
          "internalType": "uint256",
          "name": "auctionId",
          "type": "uint256"
        }
      ],
      "name": "getAuction",
      "outputs": [
        {
          "internalType": "address",
          "name": "seller",
          "type": "address"
        },
        {
          "internalType": "address",
          "name": "highestBidder",
          "type": "address"
        },
        {
          "internalType": "uint256",
          "name": "highestBid",
          "type": "uint256"
        },
        {
          "internalType": "uint256",
          "name": "endTime",
          "type": "uint256"
        },
        {
          "internalType": "uint256",
          "name": "createdAt",
          "type": "uint256"
        },
        {
          "internalType": "bool",
          "name": "settled",
          "type": "bool"
        },
        {
          "internalType": "uint8",
          "name": "timeExtensions",
          "type": "uint8"
        },
        {
          "internalType": "string",
          "name": "offchainId",
          "type": "string"
        }
      ],
      "stateMutability": "view",
      "type": "function"
    },
    {
      "inputs": [
        {
          "internalType": "uint256",
          "name": "auctionId",
          "type": "uint256"
        }
      ],
      "name": "getMinimumBid",
      "outputs": [
        {
          "internalType": "uint256",
          "name": "",
          "type": "uint256"
        }
      ],
      "stateMutability": "view",
      "type": "function"
    },
    {
      "inputs": [],
      "name": "getTotalValueLocked",
      "outputs": [
        {
          "internalType": "uint256",
          "name": "",
          "type": "uint256"
        }
      ],
      "stateMutability": "view",
      "type": "function"
    },
    {
      "inputs": [],
      "name": "owner",
      "outputs": [
        {
          "internalType": "address",
          "name": "",
          "type": "address"
        }
      ],
      "stateMutability": "view",
      "type": "function"
    },
    {
      "inputs": [],
      "name": "pause",
      "outputs": [],
      "stateMutability": "nonpayable",
      "type": "function"
    },
    {
      "inputs": [],
      "name": "paused",
      "outputs": [
        {
          "internalType": "bool",
          "name": "",
          "type": "bool"
        }
      ],
      "stateMutability": "view",
      "type": "function"
    },
    {
      "inputs": [
        {
          "internalType": "address",
          "name": "",
          "type": "address"
        }
      ],
      "name": "pendingWithdrawals",
      "outputs": [
        {
          "internalType": "uint256",
          "name": "",
          "type": "uint256"
        }
      ],
      "stateMutability": "view",
      "type": "function"
    },
    {
      "inputs": [
        {
          "internalType": "uint256",
          "name": "auctionId",
          "type": "uint256"
        }
      ],
      "name": "placeBid",
      "outputs": [],
      "stateMutability": "payable",
      "type": "function"
    },
    {
      "inputs": [],
      "name": "protocolFeePercentage",
      "outputs": [
        {
          "internalType": "uint256",
          "name": "",
          "type": "uint256"
        }
      ],
      "stateMutability": "view",
      "type": "function"
    },
    {
      "inputs": [],
      "name": "renounceOwnership",
      "outputs": [],
      "stateMutability": "nonpayable",
      "type": "function"
    },
    {
      "inputs": [
        {
          "internalType": "uint256",
          "name": "_feePercentage",
          "type": "uint256"
        }
      ],
      "name": "setProtocolFee",
      "outputs": [],
      "stateMutability": "nonpayable",
      "type": "function"
    },
    {
      "inputs": [
        {
          "internalType": "uint256",
          "name": "auctionId",
          "type": "uint256"
        }
      ],
      "name": "settleAuction",
      "outputs": [],
      "stateMutability": "nonpayable",
      "type": "function"
    },
    {
      "inputs": [
        {
          "internalType": "address",
          "name": "newOwner",
          "type": "address"
        }
      ],
      "name": "transferOwnership",
      "outputs": [],
      "stateMutability": "nonpayable",
      "type": "function"
    },
    {
      "inputs": [],
      "name": "unpause",
      "outputs": [],
      "stateMutability": "nonpayable",
      "type": "function"
    },
    {
      "inputs": [],
      "name": "withdraw",
      "outputs": [],
      "stateMutability": "nonpayable",
      "type": "function"
    }
  ],
  "bytecode": "0x608060405260fa60055534801561001557600080fd5b506001600055338061004157604051631e4fbdf760e01b81526000600482015260240160405180910390fd5b61004a81610050565b506100a2565b600180546001600160a01b038381166001600160a01b0319831681179093556040519116919082907f8be0079c531659141344cd1fd0a4f28419497f9722a3daafe3b4186f6b6457e090600090a35050565b611fea806100b16000396000f3fe6080604052600436106101d85760003560e01c80638da5cb5b11610102578063b8ca3b8311610095578063ed0f888811610064578063ed0f8888146104ec578063f2fde38b14610509578063f3f4370314610529578063ff2549881461049657600080fd5b8063b8ca3b8314610480578063c2f50a7a14610496578063dc1b6528146104ac578063dd75cd9b146104cc57600080fd5b8063a4ce395c116100d1578063a4ce395c14610422578063a7e7664414610437578063ac78c7701461044d578063b26025aa1461046d57600080fd5b80638da5cb5b146103b15780638e50e509146103d957806396b5a755146103ef5780639979ef451461040f57600080fd5b8063536531311161017a578063787dce3d11610149578063787dce3d1461033357806378bd793514610353578063801f4b0c146103875780638456cb591461039c57600080fd5b806353653131146102a8578063571a26a0146102be5780635c975abb146102f3578063715018a61461031e57600080fd5b80633ccfd60b116101b65780633ccfd60b146102525780633f4ba83a146102675780633fb351781461027c57806346767bd01461029357600080fd5b80630600d4eb146101dd5780632dbddb41146102105780632e99361114610230575b600080fd5b3480156101e957600080fd5b506101fd6101f8366004611b0a565b610556565b6040519081526020015b60405180910390f35b34801561021c57600080fd5b506101fd61022b366004611b39565b6106e4565b34801561023c57600080fd5b5061025061024b366004611b0a565b6109a3565b005b34801561025e57600080fd5b50610250610cb4565b34801561027357600080fd5b50610250610ded565b34801561028857600080fd5b506101fd62278d0081565b34801561029f57600080fd5b506101fd606481565b3480156102b457600080fd5b506101fd61012c81565b3480156102ca57600080fd5b506102de6102d9366004611b0a565b610dfd565b60405161020799989796959493929190611c43565b3480156102ff57600080fd5b50600154600160a01b900460ff165b6040519015158152602001610207565b34801561032a57600080fd5b50610250610ee8565b34801561033f57600080fd5b5061025061034e366004611b0a565b610efa565b34801561035f57600080fd5b5061037361036e366004611b0a565b610f48565b604051610207989796959493929190611ca9565b34801561039357600080fd5b506101fd600a81565b3480156103a857600080fd5b506102506110d1565b3480156103bd57600080fd5b506001546040516001600160a01b039091168152602001610207565b3480156103e557600080fd5b506101fd60055481565b3480156103fb57600080fd5b5061025061040a366004611b0a565b6110e1565b61025061041d366004611b0a565b611230565b34801561042e57600080fd5b506101fd600581565b34801561044357600080fd5b506101fd60045481565b34801561045957600080fd5b5061030e610468366004611b0a565b6115aa565b34801561047957600080fd5b50476101fd565b34801561048c57600080fd5b506101fd6103e881565b3480156104a257600080fd5b506101fd610e1081565b3480156104b857600080fd5b5061030e6104c7366004611b0a565b6116ff565b3480156104d857600080fd5b506102506104e7366004611b0a565b61184a565b3480156104f857600080fd5b506101fd683635c9adc5dea0000081565b34801561051557600080fd5b50610250610524366004611d0b565b611936565b34801561053557600080fd5b506101fd610544366004611d0b565b60036020526000908152604090205481565b60008160045481106105835760405162461bcd60e51b815260040161057a90611d3b565b60405180910390fd5b600083815260026020818152604080842081516101208101835281546001600160a01b0390811682526001830154169381019390935292830154908201526003820154606082015260048201546080820152600582015460a0820152600682015460ff808216151560c0840152610100918290041660e08301526007830180549293929184019161061390611d67565b80601f016020809104026020016040519081016040528092919081815260200182805461063f90611d67565b801561068c5780601f106106615761010080835404028352916020019161068c565b820191906000526020600020905b81548152906001019060200180831161066f57829003601f168201915b505050505081525050905080604001516000036106ae576060015191506106de565b6064600582604001516106c19190611db1565b6106cb9190611dce565b81604001516106da9190611df0565b9250505b50919050565b60006106ee611974565b6000845111801561070157506064845111155b6107435760405162461bcd60e51b8152602060048201526013602482015272125b9d985b1a59081bd99998da185a5b881251606a1b604482015260640161057a565b610e108210158015610758575062278d008211155b6107975760405162461bcd60e51b815260206004820152601060248201526f24b73b30b634b210323ab930ba34b7b760811b604482015260640161057a565b6000831180156107b05750683635c9adc5dea000008311155b6107ee5760405162461bcd60e51b815260206004820152600f60248201526e125b9d985b1a59081b5a5b88189a59608a1b604482015260640161057a565b60048054600091826107ff83611e03565b90915550905060006108118442611df0565b9050604051806101200160405280336001600160a01b0316815260200160006001600160a01b0316815260200160008152602001868152602001828152602001428152602001600015158152602001600060ff168152602001878152506002600084815260200190815260200160002060008201518160000160006101000a8154816001600160a01b0302191690836001600160a01b0316021790555060208201518160010160006101000a8154816001600160a01b0302191690836001600160a01b0316021790555060408201518160020155606082015181600301556080820151816004015560a0820151816005015560c08201518160060160006101000a81548160ff02191690831515021790555060e08201518160060160016101000a81548160ff021916908360ff16021790555061010082015181600701908161095a9190611e6b565b50905050817f9a95635c1a9585f1db80d79e7758df71ce3477641280cdd6a586a178f924445287338460405161099293929190611f2b565b60405180910390a250949350505050565b6109ab611974565b8060045481106109cd5760405162461bcd60e51b815260040161057a90611d3b565b6109d561199f565b60008281526002602052604090206004810154421015610a2b5760405162461bcd60e51b8152602060048201526011602482015270105d58dd1a5bdb881b9bdd08195b991959607a1b604482015260640161057a565b600681015460ff1615610a505760405162461bcd60e51b815260040161057a90611f59565b610e108160040154610a629190611df0565b421015610ad75780546001600160a01b0316331480610a8b57506001546001600160a01b031633145b610ad75760405162461bcd60e51b815260206004820152601960248201527f536574746c656d656e74206e6f7420796574207075626c696300000000000000604482015260640161057a565b60068101805460ff191660019081179091558101546001600160a01b031615610c695760006005548260020154610b0e9190611db1565b9050600554826002015482610b239190611dce565b14610b705760405162461bcd60e51b815260206004820152601860248201527f4665652063616c63756c6174696f6e206f766572666c6f770000000000000000604482015260640161057a565b6000610b7e61271083611dce565b90506000818460020154610b929190611f82565b84546001600160a01b0316600090815260036020526040812080549293508392909190610bc0908490611df0565b9091555082905060036000610bdd6001546001600160a01b031690565b6001600160a01b03166001600160a01b031681526020019081526020016000206000828254610c0c9190611df0565b909155505060018401546002850154604080516001600160a01b039093168352602083019190915287917fc9f72b276a388619c6d185d146697036241880c36654b1a3ffdad07c24038d99910160405180910390a2505050610ca5565b604080516000808252602082015284917fc9f72b276a388619c6d185d146697036241880c36654b1a3ffdad07c24038d99910160405180910390a25b50610cb06001600055565b5050565b610cbc61199f565b3360009081526003602052604090205480610d0f5760405162461bcd60e51b81526020600482015260136024820152724e6f7468696e6720746f20776974686472617760681b604482015260640161057a565b336000818152600360205260408082208290555190919083908381818185875af1925050503d8060008114610d60576040519150601f19603f3d011682016040523d82523d6000602084013e610d65565b606091505b5050905080610daa5760405162461bcd60e51b815260206004820152601160248201527015da5d1a191c985dd85b0819985a5b1959607a1b604482015260640161057a565b60405182815233907f7fcf532c15f0a6db0bd6d0e038bea71d30d808c7d98cb3bf7268a95bf5081b659060200160405180910390a25050610deb6001600055565b565b610df56119c9565b610deb6119f6565b6002602081905260009182526040909120805460018201549282015460038301546004840154600585015460068601546007870180546001600160a01b039788169990971697959694959394929360ff808416946101009094041692909190610e6590611d67565b80601f0160208091040260200160405190810160405280929190818152602001828054610e9190611d67565b8015610ede5780601f10610eb357610100808354040283529160200191610ede565b820191906000526020600020905b815481529060010190602001808311610ec157829003601f168201915b5050505050905089565b610ef06119c9565b610deb6000611a4b565b610f026119c9565b6103e8811115610f435760405162461bcd60e51b815260206004820152600c60248201526b08ccaca40e8dede40d0d2ced60a31b604482015260640161057a565b600555565b60008060008060008060006060886004548110610f775760405162461bcd60e51b815260040161057a90611d3b565b60008a815260026020818152604080842081516101208101835281546001600160a01b0390811682526001830154169381019390935292830154908201526003820154606082015260048201546080820152600582015460a0820152600682015460ff808216151560c0840152610100918290041660e08301526007830180549293929184019161100790611d67565b80601f016020809104026020016040519081016040528092919081815260200182805461103390611d67565b80156110805780601f1061105557610100808354040283529160200191611080565b820191906000526020600020905b81548152906001019060200180831161106357829003601f168201915b505050505081525050905080600001518160200151826040015183608001518460a001518560c001518660e00151876101000151995099509950995099509950995099505050919395975091939597565b6110d96119c9565b610deb611a9d565b8060045481106111035760405162461bcd60e51b815260040161057a90611d3b565b60008281526002602052604090205482906001600160a01b031633148061113457506001546001600160a01b031633145b6111715760405162461bcd60e51b815260206004820152600e60248201526d139bdd08185d5d1a1bdc9a5e995960921b604482015260640161057a565b600083815260026020526040902060018101546001600160a01b0316156111c55760405162461bcd60e51b8152602060048201526008602482015267486173206269647360c01b604482015260640161057a565b600681015460ff16156111ea5760405162461bcd60e51b815260040161057a90611f59565b60068101805460ff1916600117905542600482015560405184907f2809c7e17bf978fbc7194c0a694b638c4215e9140cacc6c38ca36010b45697df90600090a250505050565b611238611974565b80600454811061125a5760405162461bcd60e51b815260040161057a90611d3b565b61126261199f565b6000828152600260205260409020600481015442106112b35760405162461bcd60e51b815260206004820152600d60248201526c105d58dd1a5bdb88195b991959609a1b604482015260640161057a565b600681015460ff16156112fa5760405162461bcd60e51b815260206004820152600f60248201526e105d58dd1a5bdb881cd95d1d1b1959608a1b604482015260640161057a565b683635c9adc5dea000003411156113495760405162461bcd60e51b8152602060048201526013602482015272084d2c840c2dadeeadce840e8dede40d0d2ced606b1b604482015260640161057a565b60008160020154600003611362575060038101546113f5565b60006005606484600201546113779190611dce565b6113819190611db1565b60028401549091506113938282611df0565b10156113e15760405162461bcd60e51b815260206004820152601860248201527f4269642063616c63756c6174696f6e206f766572666c6f770000000000000000604482015260640161057a565b8083600201546113f19190611df0565b9150505b803410156114335760405162461bcd60e51b815260206004820152600b60248201526a42696420746f6f206c6f7760a81b604482015260640161057a565b60018201546001600160a01b03161561147d57600282015460018301546001600160a01b031660009081526003602052604081208054909190611477908490611df0565b90915550505b6001820180546001600160a01b03191633179055346002830155600482015461012c6114a94283611f82565b1080156114c357506006830154600a61010090910460ff16105b1561155b576114d461012c42611df0565b6004840181905560068401805491925061010090910460ff169060016114f983611f95565b825460ff91821661010093840a90810290830219909116179092556006860154604080518681529290910490921660208201528792507f16809fdbf37d201169b8b6c9e3028773e4363b67a0abb93da085ee61241a80fb910160405180910390a25b6040805133815234602082015290810182905285907f51db8e23b3f4479b162fd48823b8402895442b8f6cfd94f66239391881ec7b6f9060600160405180910390a2505050610cb06001600055565b60008160045481106115ce5760405162461bcd60e51b815260040161057a90611d3b565b600083815260026020818152604080842081516101208101835281546001600160a01b0390811682526001830154169381019390935292830154908201526003820154606082015260048201546080820152600582015460a0820152600682015460ff808216151560c0840152610100918290041660e08301526007830180549293929184019161165e90611d67565b80601f016020809104026020016040519081016040528092919081815260200182805461168a90611d67565b80156116d75780601f106116ac576101008083540402835291602001916116d7565b820191906000526020600020905b8154815290600101906020018083116116ba57829003601f168201915b5050505050815250509050610e1081608001516116f49190611df0565b421015949350505050565b60008160045481106117235760405162461bcd60e51b815260040161057a90611d3b565b600083815260026020818152604080842081516101208101835281546001600160a01b0390811682526001830154169381019390935292830154908201526003820154606082015260048201546080820152600582015460a0820152600682015460ff808216151560c0840152610100918290041660e0830152600783018054929392918401916117b390611d67565b80601f01602080910402602001604051908101604052809291908181526020018280546117df90611d67565b801561182c5780601f106118015761010080835404028352916020019161182c565b820191906000526020600020905b81548152906001019060200180831161180f57829003601f168201915b5050509190925250505060e00151600a60ff90911610949350505050565b6118526119c9565b8060045481106118745760405162461bcd60e51b815260040161057a90611d3b565b6000828152600260205260409020600681015460ff16156118a75760405162461bcd60e51b815260040161057a90611f59565b60018101546001600160a01b0316156118f157600281015460018201546001600160a01b0316600090815260036020526040812080549091906118eb908490611df0565b90915550505b60068101805460ff1916600117905542600482015560405183907f2809c7e17bf978fbc7194c0a694b638c4215e9140cacc6c38ca36010b45697df90600090a2505050565b61193e6119c9565b6001600160a01b03811661196857604051631e4fbdf760e01b81526000600482015260240161057a565b61197181611a4b565b50565b600154600160a01b900460ff1615610deb5760405163d93c066560e01b815260040160405180910390fd5b6002600054036119c257604051633ee5aeb560e01b815260040160405180910390fd5b6002600055565b6001546001600160a01b03163314610deb5760405163118cdaa760e01b815233600482015260240161057a565b6119fe611ae0565b6001805460ff60a01b191690557f5db9ee0a495bf2e6ff9c91a7834c1ba4fdd244a5e8aa4e537bd38aeae4b073aa335b6040516001600160a01b03909116815260200160405180910390a1565b600180546001600160a01b038381166001600160a01b0319831681179093556040519116919082907f8be0079c531659141344cd1fd0a4f28419497f9722a3daafe3b4186f6b6457e090600090a35050565b611aa5611974565b6001805460ff60a01b1916600160a01b1790557f62e78cea01bee320cd4e420270b5ea74000d11b0c9f74754ebdbfc544b05a258611a2e3390565b600154600160a01b900460ff16610deb57604051638dfc202b60e01b815260040160405180910390fd5b600060208284031215611b1c57600080fd5b5035919050565b634e487b7160e01b600052604160045260246000fd5b600080600060608486031215611b4e57600080fd5b833567ffffffffffffffff80821115611b6657600080fd5b818601915086601f830112611b7a57600080fd5b813581811115611b8c57611b8c611b23565b604051601f8201601f19908116603f01168101908382118183101715611bb457611bb4611b23565b81604052828152896020848701011115611bcd57600080fd5b82602086016020830137600060208483010152809750505050505060208401359150604084013590509250925092565b6000815180845260005b81811015611c2357602081850181015186830182015201611c07565b506000602082860101526020601f19601f83011685010191505092915050565b600061012060018060a01b03808d168452808c166020850152508960408401528860608401528760808401528660a084015285151560c084015260ff851660e084015280610100840152611c9981840185611bfd565b9c9b505050505050505050505050565b6001600160a01b0389811682528816602082015260408101879052606081018690526080810185905283151560a082015260ff831660c082015261010060e08201819052600090611cfc83820185611bfd565b9b9a5050505050505050505050565b600060208284031215611d1d57600080fd5b81356001600160a01b0381168114611d3457600080fd5b9392505050565b602080825260129082015271125b9d985b1a5908185d58dd1a5bdb88125160721b604082015260600190565b600181811c90821680611d7b57607f821691505b6020821081036106de57634e487b7160e01b600052602260045260246000fd5b634e487b7160e01b600052601160045260246000fd5b8082028115828204841417611dc857611dc8611d9b565b92915050565b600082611deb57634e487b7160e01b600052601260045260246000fd5b500490565b80820180821115611dc857611dc8611d9b565b600060018201611e1557611e15611d9b565b5060010190565b601f821115611e6657600081815260208120601f850160051c81016020861015611e435750805b601f850160051c820191505b81811015611e6257828155600101611e4f565b5050505b505050565b815167ffffffffffffffff811115611e8557611e85611b23565b611e9981611e938454611d67565b84611e1c565b602080601f831160018114611ece5760008415611eb65750858301515b600019600386901b1c1916600185901b178555611e62565b600085815260208120601f198616915b82811015611efd57888601518255948401946001909101908401611ede565b5085821015611f1b5787850151600019600388901b60f8161c191681555b5050505050600190811b01905550565b606081526000611f3e6060830186611bfd565b6001600160a01b039490941660208301525060400152919050565b6020808252600f908201526e105b1c9958591e481cd95d1d1b1959608a1b604082015260600190565b81810381811115611dc857611dc8611d9b565b600060ff821660ff8103611fab57611fab611d9b565b6001019291505056fea2646970667358221220ae8f42462a04cbedd3dfe14e7eaf5742faa19c1f2efc33ab3ec4f90b05544c7164736f6c63430008140033",
  "linkReferences": {},
  "deployedLinkReferences": {}
}