{
  "_format": "hh-sol-artifact-1",
  "contractName": "AuctionSystem",
  "sourceName": "contracts/AuctionSystem.sol",
  "abi": [
    {
      "inputs": [],
      "stateMutability": "nonpayable",
      "type": "constructor"
    },
    {
      "anonymous": false,
      "inputs": [
        {
          "indexed": false,
          "internalType": "uint256",
          "name": "_auctionIndex",
          "type": "uint256"
        },
        {
          "indexed": false,
          "internalType": "uint256",
          "name": "_amount",
          "type": "uint256"
        },
        {
          "indexed": false,
          "internalType": "address",
          "name": "_bidderAddress",
          "type": "address"
        }
      ],
      "name": "AuctionWithdraw",
      "type": "event"
    },
    {
      "anonymous": false,
      "inputs": [
        {
          "indexed": false,
          "internalType": "string",
          "name": "_name",
          "type": "string"
        },
        {
          "indexed": false,
          "internalType": "uint256",
          "name": "_initialPrice",
          "type": "uint256"
        }
      ],
      "name": "CreateAuction",
      "type": "event"
    },
    {
      "anonymous": false,
      "inputs": [
        {
          "indexed": false,
          "internalType": "string",
          "name": "_name",
          "type": "string"
        },
        {
          "indexed": false,
          "internalType": "enum AuctionSystem.AuctionStatus",
          "name": "_currentState",
          "type": "uint8"
        },
        {
          "indexed": false,
          "internalType": "uint256",
          "name": "_auctionIndex",
          "type": "uint256"
        }
      ],
      "name": "UpdatedAuctionState",
      "type": "event"
    },
    {
      "anonymous": false,
      "inputs": [
        {
          "indexed": false,
          "internalType": "uint256",
          "name": "_auctionIndex",
          "type": "uint256"
        },
        {
          "indexed": false,
          "internalType": "uint256",
          "name": "_newOffer",
          "type": "uint256"
        },
        {
          "indexed": false,
          "internalType": "address",
          "name": "_bidderAddress",
          "type": "address"
        }
      ],
      "name": "UpdatedBid",
      "type": "event"
    },
    {
      "inputs": [
        {
          "internalType": "uint256",
          "name": "",
          "type": "uint256"
        }
      ],
      "name": "auctions",
      "outputs": [
        {
          "internalType": "string",
          "name": "name",
          "type": "string"
        },
        {
          "internalType": "uint256",
          "name": "initialPrice",
          "type": "uint256"
        },
        {
          "internalType": "uint256",
          "name": "currentPrice",
          "type": "uint256"
        },
        {
          "internalType": "address payable",
          "name": "bidder",
          "type": "address"
        },
        {
          "internalType": "uint256",
          "name": "deadline",
          "type": "uint256"
        },
        {
          "internalType": "uint256",
          "name": "bidCount",
          "type": "uint256"
        },
        {
          "internalType": "enum AuctionSystem.AuctionStatus",
          "name": "status",
          "type": "uint8"
        }
      ],
      "stateMutability": "view",
      "type": "function"
    },
    {
      "inputs": [
        {
          "internalType": "uint256",
          "name": "_id",
          "type": "uint256"
        }
      ],
      "name": "closeAuction",
      "outputs": [],
      "stateMutability": "nonpayable",
      "type": "function"
    },
    {
      "inputs": [
        {
          "internalType": "string",
          "name": "_name",
          "type": "string"
        },
        {
          "internalType": "uint256",
          "name": "_initialPrice",
          "type": "uint256"
        },
        {
          "internalType": "uint256",
          "name": "_durationInSeconds",
          "type": "uint256"
        }
      ],
      "name": "createNewAuction",
      "outputs": [],
      "stateMutability": "nonpayable",
      "type": "function"
    },
    {
      "inputs": [
        {
          "internalType": "uint256",
          "name": "_id",
          "type": "uint256"
        }
      ],
      "name": "getAuctionDetails",
      "outputs": [
        {
          "internalType": "address",
          "name": "currentWinner",
          "type": "address"
        },
        {
          "internalType": "uint256",
          "name": "currentPrice",
          "type": "uint256"
        },
        {
          "internalType": "uint256",
          "name": "secondsRemaining",
          "type": "uint256"
        },
        {
          "internalType": "enum AuctionSystem.AuctionStatus",
          "name": "status",
          "type": "uint8"
        }
      ],
      "stateMutability": "view",
      "type": "function"
    },
    {
      "inputs": [
        {
          "internalType": "uint256",
          "name": "_id",
          "type": "uint256"
        }
      ],
      "name": "getBidCount",
      "outputs": [
        {
          "internalType": "uint256",
          "name": "",
          "type": "uint256"
        }
      ],
      "stateMutability": "view",
      "type": "function"
    },
    {
      "inputs": [],
      "name": "getTotalAuctions",
      "outputs": [
        {
          "internalType": "uint256",
          "name": "",
          "type": "uint256"
        }
      ],
      "stateMutability": "view",
      "type": "function"
    },
    {
      "inputs": [
        {
          "internalType": "string",
          "name": "",
          "type": "string"
        }
      ],
      "name": "namesUsed",
      "outputs": [
        {
          "internalType": "bool",
          "name": "",
          "type": "bool"
        }
      ],
      "stateMutability": "view",
      "type": "function"
    },
    {
      "inputs": [
        {
          "internalType": "uint256",
          "name": "_auctionIndex",
          "type": "uint256"
        }
      ],
      "name": "sendNewBid",
      "outputs": [],
      "stateMutability": "payable",
      "type": "function"
    },
    {
      "inputs": [
        {
          "internalType": "uint256",
          "name": "_auctionIndex",
          "type": "uint256"
        }
      ],
      "name": "withdraw",
      "outputs": [],
      "stateMutability": "payable",
      "type": "function"
    }
  ],
  "bytecode": "0x608060405234801561001057600080fd5b50600080546001600160a01b03191633179055611252806100326000396000f3fe6080604052600436106100865760003560e01c8063744d341111610059578063744d341114610117578063aa1ed30e14610137578063c44b52301461014a578063e33a33b314610195578063f20e5e35146101b557600080fd5b8063236ed8f31461008b5780632e1a7d4d146100ad5780633ef14cc8146100c0578063571a26a0146100e4575b600080fd5b34801561009757600080fd5b506100ab6100a6366004610d24565b6101e5565b005b6100ab6100bb366004610d24565b610224565b3480156100cc57600080fd5b506001545b6040519081526020015b60405180910390f35b3480156100f057600080fd5b506101046100ff366004610d24565b61041e565b6040516100db9796959493929190610dc5565b34801561012357600080fd5b506100d1610132366004610d24565b610508565b6100ab610145366004610d24565b610536565b34801561015657600080fd5b50610185610165366004610ebc565b805160208183018101805160028252928201919093012091525460ff1681565b60405190151581526020016100db565b3480156101a157600080fd5b506100ab6101b0366004610ef9565b61084c565b3480156101c157600080fd5b506101d56101d0366004610d24565b610a66565b6040516100db9493929190610f47565b6000546001600160a01b031633146102185760405162461bcd60e51b815260040161020f90610f7b565b60405180910390fd5b61022181610be1565b50565b6000546001600160a01b0316331461024e5760405162461bcd60e51b815260040161020f90610f7b565b600154819081106102715760405162461bcd60e51b815260040161020f90610fc0565b6000600183815481106102865761028661100b565b6000918252602082206007909102019150600682015460ff1660028111156102b0576102b0610d8d565b036102fd5760405162461bcd60e51b815260206004820152601f60248201527f546869732061756374696f6e206973206e6f7420636c6f736564207965742e00604482015260640161020f565b6002600682015460ff16600281111561031857610318610d8d565b0361037c5760405162461bcd60e51b815260206004820152602e60248201527f546869732061756374696f6e2069732070617965642c2063616e27742062652060448201526d323930bbb71030b73cb6b7b9329760911b606482015260840161020f565b6002810154600080546040516001600160a01b039091169183156108fc02918491818181858888f193505050501580156103ba573d6000803e3d6000fd5b5060068201805460ff1916600217905560005460408051868152602081018490526001600160a01b03909216908201527f997f26ee6e00428b7ecf9a9493036a5910a83fd47a598e6b0ec6cad8fb59e30e906060015b60405180910390a150505050565b6001818154811061042e57600080fd5b906000526020600020906007020160009150905080600001805461045190611021565b80601f016020809104026020016040519081016040528092919081815260200182805461047d90611021565b80156104ca5780601f1061049f576101008083540402835291602001916104ca565b820191906000526020600020905b8154815290600101906020018083116104ad57829003601f168201915b50505060018401546002850154600386015460048701546005880154600690980154969793969295506001600160a01b039091169350919060ff1687565b60006001828154811061051d5761051d61100b565b9060005260206000209060070201600501549050919050565b600154819081106105595760405162461bcd60e51b815260040161020f90610fc0565b6000546001600160a01b031633036105a65760405162461bcd60e51b815260206004820152601060248201526f13dddb995c8818d85b9b9bdd08189a5960821b604482015260640161020f565b816000600182815481106105bc576105bc61100b565b6000918252602082206007909102019150600682015460ff1660028111156105e6576105e6610d8d565b1480156105f7575042816004015411155b156106055761060582610be1565b6000600682015460ff16600281111561062057610620610d8d565b146106665760405162461bcd60e51b8152602060048201526016602482015275151a1a5cc8185d58dd1a5bdb881a5cc818db1bdcd95960521b604482015260640161020f565b8360006001828154811061067c5761067c61100b565b90600052602060002090600702019050806002015434116106ef5760405162461bcd60e51b815260206004820152602760248201527f4f66666572206d75737420626520686967686572207468616e2063757272656e6044820152667420707269636560c81b606482015260840161020f565b806001015434116107525760405162461bcd60e51b815260206004820152602760248201527f4f66666572206d75737420626520686967686572207468616e20696e697469616044820152666c20707269636560c81b606482015260840161020f565b6000600187815481106107675761076761100b565b60009182526020909120600790910201600381015460028201549192506001600160a01b03169081156107cc576040516001600160a01b0383169082156108fc029083906000818181858888f193505050501580156107ca573d6000803e3d6000fd5b505b3460028401556003830180546001600160a01b03191633179055600583018054600191906000906107fe908490611071565b9091555050604080518a8152346020820152338183015290517f2f2317489eb3b025da5521ea9c4a7bd075188f0b72c209b7d7a29ff80e7b62209181900360600190a1505050505050505050565b6000546001600160a01b031633146108765760405162461bcd60e51b815260040161020f90610f7b565b82600281604051610887919061108a565b9081526040519081900360200190205460ff16156108e75760405162461bcd60e51b815260206004820181905260248201527f546869732061756374696f6e206e616d6520697320616c726564792075736564604482015260640161020f565b60006108f38342611071565b905060016040518060e001604052808781526020018681526020016000815260200160006001600160a01b03168152602001838152602001600081526020016000600281111561094557610945610d8d565b9052815460018101835560009283526020909220815191926007020190819061096e90826110f7565b50602082015181600101556040820151816002015560608201518160030160006101000a8154816001600160a01b0302191690836001600160a01b031602179055506080820151816004015560a0820151816005015560c08201518160060160006101000a81548160ff021916908360028111156109ee576109ee610d8d565b021790555050506001600286604051610a07919061108a565b908152604051908190036020018120805492151560ff19909316929092179091557f411f4da18fed49d65f216aabbd840c349d443c68068da6f337005faf5e31b32690610a5790879087906111b7565b60405180910390a15050505050565b600080600080600060018681548110610a8157610a8161100b565b90600052602060002090600702016040518060e0016040529081600082018054610aaa90611021565b80601f0160208091040260200160405190810160405280929190818152602001828054610ad690611021565b8015610b235780601f10610af857610100808354040283529160200191610b23565b820191906000526020600020905b815481529060010190602001808311610b0657829003601f168201915b505050918352505060018201546020820152600280830154604083015260038301546001600160a01b0316606083015260048301546080830152600583015460a0830152600683015460c09092019160ff1690811115610b8557610b85610d8d565b6002811115610b9657610b96610d8d565b815250509050600042826080015111610bb0576000610bc0565b428260800151610bc091906111d9565b6060830151604084015160c090940151909993985090965094509092505050565b60015481908110610c045760405162461bcd60e51b815260040161020f90610fc0565b600060018381548110610c1957610c1961100b565b6000918252602082206006600790920201908101805460ff1916600117905580549092508290610c4890611021565b80601f0160208091040260200160405190810160405280929190818152602001828054610c7490611021565b8015610cc15780601f10610c9657610100808354040283529160200191610cc1565b820191906000526020600020905b815481529060010190602001808311610ca457829003601f168201915b505050505090507f6a4fc6478f4a93574fcdd50ab147277a7be5c6e0d8287dec5d285fe8e39c51c68160018681548110610cfd57610cfd61100b565b6000918252602090912060066007909202010154604051610410929160ff169088906111ec565b600060208284031215610d3657600080fd5b5035919050565b60005b83811015610d58578181015183820152602001610d40565b50506000910152565b60008151808452610d79816020860160208601610d3d565b601f01601f19169290920160200192915050565b634e487b7160e01b600052602160045260246000fd5b60038110610dc157634e487b7160e01b600052602160045260246000fd5b9052565b60e081526000610dd860e083018a610d61565b905087602083015286604083015260018060a01b03861660608301528460808301528360a0830152610e0d60c0830184610da3565b98975050505050505050565b634e487b7160e01b600052604160045260246000fd5b600082601f830112610e4057600080fd5b813567ffffffffffffffff80821115610e5b57610e5b610e19565b604051601f8301601f19908116603f01168101908282118183101715610e8357610e83610e19565b81604052838152866020858801011115610e9c57600080fd5b836020870160208301376000602085830101528094505050505092915050565b600060208284031215610ece57600080fd5b813567ffffffffffffffff811115610ee557600080fd5b610ef184828501610e2f565b949350505050565b600080600060608486031215610f0e57600080fd5b833567ffffffffffffffff811115610f2557600080fd5b610f3186828701610e2f565b9660208601359650604090950135949350505050565b6001600160a01b0385168152602081018490526040810183905260808101610f726060830184610da3565b95945050505050565b60208082526025908201527f4f6e6c7920746865206f776e65722063616e2063726561746520616e206175636040820152643a34b7b71760d91b606082015260800190565b6020808252602b908201527f5468697320494420646f6573206e6f74206d6174636820616e7920637265617460408201526a32b21030bab1ba34b7b71760a91b606082015260800190565b634e487b7160e01b600052603260045260246000fd5b600181811c9082168061103557607f821691505b60208210810361105557634e487b7160e01b600052602260045260246000fd5b50919050565b634e487b7160e01b600052601160045260246000fd5b808201808211156110845761108461105b565b92915050565b6000825161109c818460208701610d3d565b9190910192915050565b601f8211156110f2576000816000526020600020601f850160051c810160208610156110cf5750805b601f850160051c820191505b818110156110ee578281556001016110db565b5050505b505050565b815167ffffffffffffffff81111561111157611111610e19565b6111258161111f8454611021565b846110a6565b602080601f83116001811461115a57600084156111425750858301515b600019600386901b1c1916600185901b1785556110ee565b600085815260208120601f198616915b828110156111895788860151825594840194600190910190840161116a565b50858210156111a75787850151600019600388901b60f8161c191681555b5050505050600190811b01905550565b6040815260006111ca6040830185610d61565b90508260208301529392505050565b818103818111156110845761108461105b565b6060815260006111ff6060830186610d61565b905061120e6020830185610da3565b82604083015294935050505056fea264697066735822122097f5696da96b43a6b8d253f96666cb8f21d494aca7f9ce2945279f383e11569d64736f6c63430008180033",
  "linkReferences": {},
  "deployedLinkReferences": {}
}